:100000000C94C5020C94E2020C94E2020C94E202FD
:100010000C94E2020C94E2020C94E2020C94E202D0
:100020000C94E2020C94E2020C94E2020C94E202C0
:100030000C94E2020C94E2020C947A070C94E20213
:100040000C94E2020C941A040C94BD030C947F03EC
:100050000C94E2020C94B50A0C94E2020C94E202B5
:100060000C94E2020C94E202756E6974203C2053F9
:1000700045525F434E5400626572746F732F637014
:10008000752F6176722F6472762F7365725F6D655E
:1000900067612E630073697A65203E2031006265D6
:1000A00072746F732F7374727563742F6669666FE1
:1000B0006275662E680066642D3E68772D3E727804
:1000C00062756666657200626572746F732F647222
:1000D000762F7365722E630066642D3E68772D3E21
:1000E000747862756666657200626572746F732FEC
:1000F0006472762F7365722E63002166642D3E69EB
:10010000735F6F70656E00626572746F732F6472D7
:10011000762F7365722E6300756E6974203C2063C0
:100120006F756E746F66287365725F68616E646C5C
:1001300065732900626572746F732F6472762F7312
:1001400065722E6300706F72742D3E69735F6F70FD
:10015000656E00626572746F732F6472762F7365BB
:10016000722E630066642D3E5F74797065203D3D9C
:10017000204B46545F53455249414C0062657274AE
:100180006F732F6472762F7365722E680021746905
:100190006D65725F696E697469616C697A65640026
:1001A000626572746F732F6472762F74696D6572F5
:1001B0002E63002674696D65722D3E6C696E6B004E
:1001C000626572746F732F6472762F74696D6572D5
:1001D0002E630066642D3E72656164006265727410
:1001E0006F732F696F2F6B66696C652E680066648C
:1001F0002D3E777269746500626572746F732F6942
:100200006F2F6B66696C652E68006368616E6E6542
:100210006C00626572746F732F6E65742F61783233
:10022000352E630063747800626572746F732F6E8D
:1002300065742F617832352E630066642D3E636CE1
:1002400065617265727200626572746F732F696F97
:100250002F6B66696C652E680066642D3E65727250
:100260006F7200626572746F732F696F2F6B6669AE
:100270006C652E68000000891112239B322446AD64
:10028000573665BF74488CC19D5AAFD3BE6CCAE562
:10029000DB7EE9F7F88110080193331A22A5562C6A
:1002A00047B7753E64C99C408DDBBF52AEEDDA6442
:1002B000CBFFF976E802218B30100299132667AF45
:1002C000763444BD554AADC3BC588ED19F6EEBE722
:1002D000FA7CC8F5D983310A2091121803A7772E2A
:1002E00066B5543C45CBBD42ACD99E508FEFFB6602
:1002F000EAFDD874C904428D5316619F702004A989
:10030000153227BB364CCEC5DF5EEDD7FC6888E1E1
:10031000997AABF3BA85520C4397711E60A11428E9
:1003200005B3373A26CDDE44CFDFFD56ECE99860C1
:1003300089FBBB72AA06638F7214409D512225ABC4
:10034000343006B9174EEFC7FE5CCCD5DD6AA9E3A1
:10035000B8788AF19B87730E6295501C41A3352AA9
:1003600024B1163807CFFF46EEDDDC54CDEBB96281
:10037000A8F99A708B088481951AA793B62CC2A508
:10038000D33EE1B7F04008C919522BDB3A644EED79
:100390005F766DFF7C899400859BB712A6ADD22451
:1003A000C3BFF136E0C1184809D33B5A2AE55E6C59
:1003B0004FF77D7E6C0AA583B4188691972EE3A72C
:1003C000F23CC0B5D14229CB38500AD91B666FEF39
:1003D0007E744CFD5D8BB502A499961087AFF32611
:1003E000E2BDD034C1C3394A28D11A580BE77F6E19
:1003F0006EF55C7C4D0CC685D71EE597F42880A170
:10040000913AA3B3B2444ACD5B5669DF78600CE9F8
:100410001D722FFB3E8DD604C79FF516E4A99020D0
:1004200081BBB332A2C55A4C4BD7795E68E11C68D8
:100430000DF33F7A2E0EE787F61CC495D52AA1A3AB
:10044000B03882B193466BCF7A5448DD59622DEBB8
:100450003C700EF91F8FF706E69DD414C5ABB12290
:10046000A0B9923083C77B4E6AD5585C49E33D6A98
:100470002CF11E780F6368203C3D2035004D6F64E1
:10048000656D2F68617264776172652E63006664C2
:100490002D3E5F74797065203D3D204B46545F4191
:1004A00046534B004D6F64656D2F6166736B2E680C
:1004B00000808183848687898A8C8E8F919294951F
:1004C00097989A9B9D9EA0A2A3A5A6A7A9AAACAD0A
:1004D000AFB0B2B3B5B6B7B9BABCBDBEC0C1C2C485
:1004E000C5C6C8C9CACBCDCECFD0D2D3D4D5D6D726
:1004F000D9DADBDCDDDEDFE0E1E2E3E4E5E6E7E8F4
:10050000E9EAEAEBECEDEEEEEFF0F1F1F2F3F3F401
:10051000F5F5F6F6F7F8F8F9F9FAFAFAFBFBFCFC50
:10052000FCFDFDFDFDFEFEFEFEFEFFFFFFFFFFFFEB
:10053000FF6275665F706F696E746572203E3D2064
:1005400062756600626572746F732F6D7761726594
:100550002F666F726D617477722E6300203D2030BC
:100560007825700A00496E76616C69642070747237
:100570003A20003A2000417373657274696F6E20EF
:100580006661696C65643A20000011241FBECFEFDC
:10059000D8E0DEBFCDBF11E0A0E0B1E0ECE7F8E3CA
:1005A00002C005900D92A836B107D9F726E0A8E65B
:1005B000B1E001C01D92A730B207E1F70E943D0AE9
:1005C0000C943C1C0C9400001092C00088E98093AD
:1005D000C10008951092C1000895FC0122852111E7
:1005E00005C021E0228788EB8093C10008959A011D
:1005F000AB01CA01B9019695879577956795605CBF
:100600007D4B804F9F4F0E94EC1B2150310930934E
:10061000C5002093C4000895E2ECF0E08081A4E0DE
:10062000660F771FAA95E1F78F7C862B808308954C
:100630009FB7F89484B1886284B99FBF8FB7F8944C
:10064000229A8FBF8FB7F89424988FBF80ED8CBD0E
:100650008CB581608CBD8DB58E7F8DBD08951CBC21
:100660009FB7F89484B1837C84B99FBF089508959F
:100670000895FC01828508956FB7F894DC011A96FD
:100680002C911A97211120C0E0916205F091630529
:10069000478D50A121A132A142175307A9F021E0B3
:1006A0001A962C93A78DB0A185A196A1A817B9077A
:1006B00019F483A194A104C0A78DB0A1CD01019626
:1006C00090A3878F8C918EBD6FBF0895CF93DF93DA
:1006D000EC018230910544F049E953E067E770E0AE
:1006E00088E690E00E9482192BE02C9FC0012D9F8C
:1006F000900D11248A5F9E4FDF91CF9108951F9234
:100700000F920FB60F9211242F933F938F939F93C5
:10071000AF93BF93EF93FF93E0916005F091610574
:10072000278D30A181A192A12817390731F488E9DA
:100730008093C1001092100113C0A78DB0A185A1B4
:1007400096A1A817B90719F483A194A104C0A78D95
:10075000B0A1CD01019690A3878F8C918093C600A4
:10076000FF91EF91BF91AF919F918F913F912F9109
:100770000F900FBE0F901F9018951F920F920FB6FB
:100780000F9211242F933F934F935F938F939F93D7
:10079000AF93BF93EF93FF93E0916005F0916105F4
:1007A00097A58091C0008871892B87A75091C600BA
:1007B00027A130A583A594A52817390739F421A5C9
:1007C00032A585A596A52817390761F021A532A580
:1007D00087A190A5019741E02817390709F040E06B
:1007E000842F01C081E080FF04C087A5816087A7B6
:1007F00012C0A1A5B2A55C9321A532A585A596A599
:100800002817390719F483A594A503C081A592A5DB
:10081000019692A781A7FF91EF91BF91AF919F9110
:100820008F915F914F913F912F910F900FBE0F903D
:100830001F9018951F920F920FB60F9211242F93AD
:100840003F934F938F939F93AF93BF93EF93FF93F8
:10085000E0916205F091630527A130A583A594A5D9
:100860002817390739F421A532A585A596A528179B
:10087000390761F021A532A587A190A5019741E034
:100880002817390709F040E0842F01C081E080FD7E
:1008900013C08EB5A1A5B2A58C9321A532A585A5BF
:1008A00096A52817390719F483A594A503C081A537
:1008B00092A5019692A781A7E0916205F091630548
:1008C000278D30A181A192A12817390799F0A78D12
:1008D000B0A185A196A1A817B90719F483A194A185
:1008E00004C0A78DB0A1CD01019690A3878F8C91F4
:1008F0008EBD02C010921B01FF91EF91BF91AF918D
:100900009F918F914F913F912F910F900FBE0F901C
:100910001F9018959FB7F89483E085BB14BC15BC55
:1009200082E084BD85B5836085BD16BC89EF87BD37
:10093000EEE6F0E080818E7F80838081826080831C
:100940009FBF0895CF93DF93EC01FB015FB7F8944D
:10095000278D30A183A194A128173907E9F421A19B
:1009600032A185A196A128173907B1F481E05FBFB4
:1009700080FD11C04FB7F894A1A1B2A1CC9321A1E1
:1009800032A185A196A12817390799F483A194A1D2
:1009900092A381A314C0DACF81A192A1278D30A1A7
:1009A0002150310941E08217930709F040E0842F7C
:1009B000DECF21A132A12F5F3F4F32A321A34FBF32
:1009C00080A991A9DC01ED91FC910084F185E02DD5
:1009D0000995CE019927DF91CF910895FC014FB77A
:1009E000F89427A130A581A592A54FBF28173907F4
:1009F00039F087A5897B79F024C087A5897BC9F761
:100A00004FB7F89427A130A581A592A54FBF28170D
:100A1000390799F3EECF2FB7F894A7A1B0A585A514
:100A200096A5A817B90719F483A594A504C0A7A192
:100A3000B0A5CD01019690A787A38C912FBF90E020
:100A400008958FEF9FEF0895AF92BF92CF92DF92FC
:100A5000EF92FF920F931F93CF93DF937C015B0183
:100A60006A01FC0100891189228933890C341245FD
:100A70002544334541F04CEB50E06CE771E084E6EF
:100A800091E00E948219E50100E010E00C151D05BF
:100A900059F0C7010E94EE048F3F2FEF920721F01B
:100AA0000F5F1F4F8993F2CFC801DF91CF911F9144
:100AB0000F91FF90EF90DF90CF90BF90AF9008958F
:100AC000AF92BF92CF92DF92EF92FF920F931F935C
:100AD000CF93DF937C015B016A01FC0100891189DE
:100AE000228933890C3412452544334541F04CEBBF
:100AF00050E06CE771E084E691E00E948219E50124
:100B000000E010E00C151D0561F08991B7019927EF
:100B100087FD90950E94A204019619F00F5F1F4F68
:100B2000F1CFC801DF91CF911F910F91FF90EF900E
:100B3000DF90CF90BF90AF900895CF93DF93EC01FB
:100B4000488959896A897B894C3452456544734583
:100B500041F04CEB50E06CE771E084E691E00E94DC
:100B600082198FA590E0DF91CF910895CF93DF9305
:100B7000EC01488959896A897B894C34524565441E
:100B8000734541F04CEB50E06CE771E084E691E096
:100B90000E9482191FA6DF91CF910895CF93DF9312
:100BA000EC01488959896A897B894C3452456544EE
:100BB000734549F04CEB50E06CE771E084E691E05E
:100BC0000E94821900C02F8D38A189A19AA12817EF
:100BD0003907C9F788A999A9DC01ED91FC91028434
:100BE000F385E02D09958111EECF80E090E0DF9153
:100BF000CF910895FC014FB7F89427A130A581A5A6
:100C000092A54FBF28173907B1F02FB7F894A7A1C5
:100C1000B0A585A596A5A817B90719F483A594A52D
:100C200004C0A7A1B0A5CD01019690A787A38C9180
:100C30002FBF90E008958FEF9FEF08956FB7F8945E
:100C4000FC0147A150A521A532A56FBF81E0421745
:100C5000530709F480E00895DC01D0968D919C91B2
:100C6000D197DC01ED91FC910480F581E02D099490
:100C7000EF92FF920F931F93CF93DF93EC018B01C1
:100C80006230710540F042E651E064E371E088E1D2
:100C900091E00E948219F801EE0FFF1FE05AFA4F0F
:100CA000D183C0838E8D882341F045E651E067E013
:100CB00071E08AEF90E00E94821981E08E8F1D8F93
:100CC0000C8FC8010E94660399AB88ABDC011296B9
:100CD0008D919C911397892B41F44DE651E069EE7B
:100CE00070E088ED90E00E948219E8A9F9A984815A
:100CF0009581892B41F44EE651E067EC70E086EB7C
:100D000090E00E948219E8A9F9A9E680F7800281A3
:100D10001381B2E0EB16F10440F441E251E06EE9D8
:100D200070E085E990E00E9482191CA30BA31AA32E
:100D300009A318A30F8FC7010197800F911F9EA3CE
:100D40008DA3E8A9F9A9E084F18404811581E2E08A
:100D5000EE16F10440F441E251E06EE970E085E9FD
:100D600090E00E9482191CA70BA71AA709A718A731
:100D70000FA3C7010197800F911F9EA78DA788A978
:100D800099A9DC01ED91FC910190F081E02DBE016B
:100D9000099540E855E260E070E0CE010E942C0623
:100DA0001FA6CE01DF91CF911F910F91FF90EF9081
:100DB00008954FB7F894FC0121A532A530A727A3C9
:100DC0004FBF08954FB7F894FC0121A132A130A381
:100DD000278F4FBF0895CF93DF93EC010E94D90670
:100DE000CE01DF91CF910C94E206CF93DF93EC011B
:100DF000488959896A897B894C34524565447345D1
:100E000041F04CEB50E06CE771E084E691E00E9429
:100E100082198E8D811108C04BE851E063E571E0C5
:100E200085E491E00E9482191E8ECE010E94CE05BB
:100E300088A999A9DC01ED91FC910280F381E02D54
:100E4000099519AA18AACE010E94EB0680E090E04D
:100E5000DF91CF910895CF93DF93EC0148895989B1
:100E60006A897B894C3452456544734541F04CEBAB
:100E700050E06CE771E084E691E00E948219CE01B7
:100E80000E94F5066C8D7D8DCE010E943806CE0144
:100E9000DF91CF910895FC01CB0122E3DF011D9288
:100EA0002A95E9F74CE452E565E473E5408B518BF4
:100EB000628B738B2BE237E03583248325EF36E09A
:100EC0003783268324E235E03183208320E635E032
:100ED000338322832EEC35E0338722872DE935E0FA
:100EE0003587248726EB35E037872687BC01CF017D
:100EF0000C9438061F920F920FB60F9211240F9385
:100F00001F932F933F934F935F936F937F938F9391
:100F10009F93AF93BF93CF93DF93EF93FF93809112
:100F2000640590916505A0916605B09167050196ED
:100F3000A11DB11D8093640590936505A09366057E
:100F4000B09367050BEA1AEBC091A801D091A901F3
:100F500088819981892BD1F18FB7F89440916405EC
:100F60005091650560916605709167058FBF888512
:100F70009985AA85BB85481B590B6A0B7B0B77FDAE
:100F800025C0CF3FD10509F048F42BEC30E040EC10
:100F900051E063EB71E0CE010E949819EA81FB8178
:100FA0008881998191838083E881F9818A819B81FD
:100FB000938382831B821A82198218821B8B0A8B6D
:100FC000EC85FD85CE010C960995BECFFF91EF9182
:100FD000DF91CF91BF91AF919F918F917F916F9151
:100FE0005F914F913F912F911F910F910F900FBEE5
:100FF0000F901F9018958CEA91E09093A90180932F
:10100000A8011092AB011092AA011092AD011092AA
:10101000AC0188EA91E09093AF018093AE01109209
:1010200064051092650510926605109267050E948E
:101030008A0480916805882341F041E951E060EA23
:1010400071E08DE891E00E94821981E0809368054B
:101050000895EF92FF920F931F93CF93DF931F9208
:10106000CDB7DEB77C018B018983DB0112968D91B0
:101070009C911397892B41F44EE051E068EF71E0A9
:101080008EEE91E00E948219D8011296ED91FC91AA
:10109000139741E050E0BE016F5F7F4FC801099593
:1010A000019719F4C701992702C08FEF9FEF0F90A6
:1010B000DF91CF911F910F91FF90EF9008950F93C3
:1010C0001F93CF93DF931F92CDB7DEB78C01DC0166
:1010D0008D919C91892B41F442EF50E06CED71E0D1
:1010E00083ED91E00E948219D801ED91FC9141E0DD
:1010F00050E0BE016F5F7F4FC8010995019719F459
:10110000898190E002C08FEF9FEF0F90DF91CF9128
:101110001F910F910895CF92DF92EF92FF920F935C
:101120001F93CF93DF931F92CDB7DEB77C01462F7D
:1011300082E8860F9701265B3E4F6901823010F0EE
:101140006B3149F4F601608171818BE190E0498354
:101150000E9429084981D701A05BBE4F2C911196AE
:101160005C911197842F90E0FC01E227EE0FFF1FA6
:10117000EB58FD4F25913491052F10E020273127A2
:101180002D933C93F601608171810F90DF91CF9197
:101190001F910F91FF90EF90DF90CF900C94290852
:1011A0003F924F925F926F927F928F929F92AF92F7
:1011B000BF92CF92DF92EF92FF920F931F93CF9344
:1011C000DF933C016C0126EBC21A2EEFD20A5C01C0
:1011D0004BEAA41A4EEFB40AEC01CC5ADE4F8C0154
:1011E000045B1E4F7C0182EBE81A8EEFF80A332471
:1011F000339444244A94542C4301AEEA8A1AAEEF45
:101200009A0AF601808191810E945F088F3FFFEF6B
:101210009F0709F458C0D5012C91211128C08E37A1
:101220009105D1F4F80180819181429768F0D7014E
:101230008D919C91883B904F39F4D401ED91FC91B4
:10124000309711F0C30109953882F701518240822D
:10125000D8011D921C92D5CF8F37910511F41882B9
:10126000D0CF8B31910519F4F5013082CACF288196
:10127000222331F1D8012D913C912A34B1E03B0772
:10128000F0F4A9014F5F5F4FF80151834083F301F0
:10129000E20FF31F8083D7012D913C911197F90143
:1012A000E827FF27EE0FFF1FEB58FD4F8591949124
:1012B000232F3327822793278D939C9301C0188275
:1012C000F50110829ECFD601CD91DC918C859D8554
:1012D000892B41F449E451E063E672E089E592E04C
:1012E0000E948219EC85FD85CE010995892B21F19B
:1012F000F601C081D1818E859F85892B41F442E51D
:1013000051E067E472E08AE392E00E948219EE8580
:10131000FF85CE01DF91CF911F910F91FF90EF904C
:10132000DF90CF90BF90AF909F908F907F906F9005
:101330005F904F903F900994DF91CF911F910F9153
:10134000FF90EF90DF90CF90BF90AF909F908F90E5
:101350007F906F905F904F903F9008958F929F92F3
:10136000AF92BF92CF92DF92EF92FF920F931F93B3
:10137000CF93DF938C014B016A017C0180EBE81A6B
:101380008EEFF80A8FEF9FEFF7019183808358016A
:10139000F6EBAF1AFEEFBF0AF501608171818EE7AF
:1013A00090E00E942908E401C80CD91CCC15DD0589
:1013B00029F06991C8010E948B08F8CFF70160817C
:1013C000C1816095C8010E948B086C2F6095C8018F
:1013D0000E948B08F501608171818EE790E0DF91BA
:1013E000CF911F910F91FF90EF90DF90CF90BF9022
:1013F000AF909F908F900C942908EF92FF920F93DB
:101400001F93CF93DF93EC018B017A01009741F496
:1014100041E251E068E272E084E292E00E948219C7
:101420000115110541F442E251E062E172E08AE007
:1014300092E00E94821986E591E0FE019C011192E2
:1014400021503040E1F7FE01E65BFE4F118300833F
:101450003896F182E08232978FEF9FEF91838083FD
:10146000C25BDE4F99838883DF91CF911F910F91EB
:10147000FF90EF9008950C941B1078940E94FB0746
:1014800060E070E081EB91E00E944B0740E855E29C
:1014900060E070E081EB91E00E942C0686E0809392
:1014A000C20060E070E089E393E00E94900F4BE39C
:1014B0005AE069E373E083EE91E00E94FD0961EB7D
:1014C00071E083EE91E00E94121083EE91E00E94A1
:1014D000D00881EB91E00E941E068823B1F381EBD6
:1014E00091E00E94FA058093B0010E947010EDCF48
:1014F000CF93DF93EC017093140460931304863050
:10150000910544F041E250E06DE774E085E794E036
:101510000E9482191092800089E18093810081E805
:1015200096E090938700809386008C2F8064809350
:101530007C0087B121E030E001C0220FCA95EAF7B4
:10154000922F9095892387B988B1892388B9809192
:101550007E00822B80937E0087E080937B008CEE60
:1015600080937A00DF91CF9108951F920F920FB66A
:101570000F9211242F933F934F935F936F937F9319
:101580008F939F93AF93BF93EF93FF9380E286BBBC
:10159000609178007091790076956795769567955A
:1015A000605880911304909114040E94A80C8091BB
:1015B0006A05882349F080911304909114040E94D5
:1015C000770E807F886007C080916905882311F0BD
:1015D00088E801C080E88BB9FF91EF91BF91AF918E
:1015E0009F918F917F916F915F914F913F912F913B
:1015F0000F900FBE0F901F901895AF92BF92CF9291
:10160000DF92EF92FF920F931F93CF93DF936C01C2
:10161000EB017A01DC0150960D911D912D913C91C9
:1016200053970D341B442345364441F04EE650E0B9
:1016300064EA74E08EE894E00E9482195E01CE01B3
:101640008E0D9F1DF601EB57FF4FA816B90671F4DA
:10165000C5018C1B9D0BDF91CF911F910F91FF90C6
:10166000EF90DF90CF90BF90AF9008956FB7F89450
:1016700040815181228133816FBF4217530741F36B
:101680002FB7F894C0906405D0906505E09066058A
:10169000F09067052FBF6FB7F89440815181228188
:1016A00033816FBF42175307A9F44FB7F8940091E5
:1016B00064051091650520916605309167054FBF5F
:1016C0000C191D092E093F091016110612061306E2
:1016D00014F7BECF6FB7F8942081318146815781CE
:1016E0002417350719F44481558105C020813181C3
:1016F000A9014F5F5F4F51834083D9012C916FBF88
:10170000D5012D935D01A1CF2F923F924F925F9211
:101710006F927F928F929F92AF92BF92CF92DF9201
:10172000EF92FF920F931F93CF93DF93EC017B0116
:101730006A0188899989AA89BB898D349B44A3450C
:10174000B64441F04EE650E064EA74E08EE894E07E
:101750000E948219870137016C0C7D1C222423947E
:101760006E0187E7C80ED11C80E4482E512C90E40E
:10177000892E9FE1992EA12CB12C0615170509F48D
:1017800077C04FB7F8942FA538A98BA99CA9281723
:10179000390739F429A93AA98DA99EA9281739072B
:1017A00061F029A93AA98FA598A9019751E02817B6
:1017B000390709F050E0852F01C081E04FBF80FD5F
:1017C000E0CFF80181918F014FB7F894E9A9FAA908
:1017D000808329A93AA98DA99EA92817390719F448
:1017E0008BA99CA903C089A99AA901969AAB89AB38
:1017F0004FBFF6018081811121C05EA64DA61CA6B7
:101800001BA61AA62082299A20912001309121013D
:101810004091220150912301A0EBB4E00E941D1CD5
:101820006056704F8F4F9F4FA50194010E94EC1B93
:101830003BA32AA35B9AF1E0F0936A053FB6F894C4
:1018400020911C0130911D0140911E0150911F01FA
:10185000A0EBB4E00E941D1C6056704F8F4F9F4F4D
:10186000A50194010E94EC1B3DA32CA33FBE85CF94
:10187000C8018E199F09DF91CF911F910F91FF90A1
:10188000EF90DF90CF90BF90AF909F908F907F9020
:101890006F905F904F903F902F900895CF93DF937C
:1018A000EC01488959896A897B894D345B446345D9
:1018B000764441F04EE650E064EA74E08EE894E04D
:1018C0000E948219C958DF4F88818111FDCF80E0C5
:1018D00090E0DF91CF910895CF93DF93EC01488999
:1018E00059896A897B894D345B446345764441F06C
:1018F0004EE650E064EA74E08EE894E00E948219BB
:101900002FB7F894C852DF4F888199812FBFDF919C
:10191000CF910895CF93DF93EC01488959896A8963
:101920007B894D345B446345764441F04EE650E09C
:1019300064EA74E08EE894E00E9482198FB7F8940C
:10194000C852DF4F198218828FBFDF91CF9108955F
:10195000EF92FF920F931F93CF93DF93FC018C01C3
:1019600001531F4FD8014D915C9111971297119619
:101970005C934E93A555B1098D919C911197169644
:101980002D913C9117978217930729F414962D9166
:101990003C91159706C08D919C9111979C012F5FEA
:1019A0003F4F11963C932E93EC0128812602900123
:1019B00011243595279535952795E8013983288396
:1019C0007F01D3EDED0EF11CE701888199818F0134
:1019D0000F521F4FE8019983888395958795840F4F
:1019E000951F820F931FE70199838883AF014B52A4
:1019F0005F4F21E0181619060CF020E0EA018881FB
:101A0000880F822B888312968D919C911397EC01FD
:101A1000688312962D913C91139716968D919C9107
:101A200017972817390729F414968D919C911597CB
:101A300005C012968D919C911397019613969C93D5
:101A40008E931297DA019C91892F86958695892726
:101A50008370DF01AA52BF4F833039F48C918032FA
:101A600014F48F5F01C081508C938C91885F8C93AC
:101A700080340CF435C18F738C93DF01A952BF4FB2
:101A80008C91880F97702BEF290F233010F0933033
:101A900009F481608C939C91892F86958927809584
:101AA0008170968D990F892B868F8E3709F04EC0E5
:101AB000DF01AB57BF4F2D913C91119714968D913B
:101AC0009C9115972817390759F412962D913C913E
:101AD000139716968D919C9117972817390779F0CF
:101AE00012962D913C9113978D919C91119701978E
:101AF00041E02817390709F040E0842F01C081E058
:101B000080FDDDC01296CD91DC9113978EE788831E
:101B100012962D913C91139716968D919C91179743
:101B20002817390729F414968D919C91159705C0B3
:101B300012968D919C911397019613969C938E9378
:101B4000129781E081A32A9A41E0BCC0982F9F7729
:101B50009F3719F411A22A98C3C091A1992309F4BF
:101B6000BFC0982F9F739E3309F4BAC080FF03C093
:101B700080A1806880A3878D8F5F878F90A1883038
:101B800008F4ACC0DF01AB57BF4F82E8890F823049
:101B900018F09B3109F04BC02D913C911197149690
:101BA0008D919C9115972817390759F412962D910C
:101BB0003C91139716968D919C911797281739078A
:101BC00079F012962D913C9113978D919C911197DC
:101BD000019741E02817390709F040E0842F01C040
:101BE00081E080FD20C01296CD91DC9113978BE1AE
:101BF000888312962D913C91139716968D919C9106
:101C000017972817390729F414968D919C911597E9
:101C100005C012968D919C911397019613969C93F3
:101C20008E93129704C011A22A9840E001C041E0AF
:101C30002D913C91119714968D919C911597281791
:101C4000390759F412962D913C91139716968D9160
:101C50009C9117972817390779F012962D913C918E
:101C600013978D919C911197019751E0281739078F
:101C700009F050E0852F01C081E080FD20C080A1E7
:101C80001296CD91DC911397888312962D913C91F9
:101C9000139716968D919C9117972817390729F459
:101CA00014968D919C91159705C012968D919C91DB
:101CB0001397019613969C938E93129703C011A2CB
:101CC0002A9840E010A2178E41110AC0E852FF4F37
:101CD0008081918181609183808302C0969590A3D9
:101CE000DF91CF911F910F91FF90EF900895DC014C
:101CF00096968C9196978111EAC098968C919897B8
:101D00008111A0C09F962D913C91D097D1968D9135
:101D10009C91D2972817390739F494968D919C910C
:101D20009597892B09F45CC099968C9199978111AC
:101D300003C09A961C929A9781E099968C939997F2
:101D400092968D919C919397009789F59F962D91EE
:101D50003C91D097D1968D919C91D29728173907B5
:101D600051F494968D919C919597019795969C939B
:101D70008E93949721C09F96ED91FC91D097D59624
:101D80008D919C91D697E817F90729F4D3968D91F8
:101D90009C91D49706C09F96ED91FC91D097CF016E
:101DA0000196D0969C938E939F97808106C0019751
:101DB00093969C938E9392978EE797968C93979792
:101DC00097968C9197978B3199F59F962D913C9191
:101DD000D097D1968D919C91D2972817390749F4C5
:101DE0005B9810926A05A958BF4F1C92299880E011
:101DF00008959F96ED91FC91D097D5968D919C91E9
:101E0000D697E817F90729F4D3968D919C91D4972A
:101E100006C09F96ED91FC91D097CF010196D09688
:101E20009C938E939F97808197968C93979706C0EB
:101E30008E57823018F499961C92999781E0989663
:101E40008C93989799962C9199979D968D919C91AA
:101E50009E972223A9F09A962C919A97253080F08C
:101E60009A961C929A978034910519F485E790E030
:101E700002C080E490E09E969C938E939D9723C031
:101E800098963C91989797962C919797232341F099
:101E90009A968C919A978F5F9A968C939A970FC087
:101EA0009A961C929A978034910519F485E790E0F0
:101EB00002C080E490E09E969C938E939D97330F92
:101EC00098963C93989788E096968C9396979D96D3
:101ED000ED91FC919E979B968D919C919C97E80F1C
:101EE000F91F9F0131709C963C932E939B97969679
:101EF0008C919697815096968C93FF27E038F10548
:101F000030F08FEF90E0AC014E1B5F0BFA01EF5405
:101F1000FB4F84912F3F310511F008F08095089513
:101F2000CF93DF93EC01CB012AEDFE0111922A95AC
:101F3000E9F77D8F6C8F20E430E03EA72DA79E014E
:101F400020583F4FFE01E858FF4F358324833383E9
:101F50002283318320832C5F3F4F37832683275F83
:101F60003F4FDE01AB57BF4F15963C932E9314970E
:101F700013963C932E93129711963C932E93215CCB
:101F80003F4F17963C932E931697255931093CAB3A
:101F90002BAB3AAB29AB38AB2FA7215C3F4F3EAB05
:101FA0002DAB24E030E0A281B3811C926281738169
:101FB000468157816417750719F44481558104C01F
:101FC000428153814F5F5F4F5383428321503109D8
:101FD0002115310541F7BE010E94780A8AB1886F48
:101FE0008AB9219A229A4DE45BE463E576E4488B52
:101FF000598B6A8B7B8B84E89BE09B838A838DEF74
:102000009AE0998388838EE49CE09B878A878CE69C
:102010009CE09D878C878AE89CE09F878E87DF9174
:10202000CF91089590939E0580939D05709302062D
:10203000609301060895EF92FF920F931F93CF9341
:10204000DF93EC01609101067091020680EC90E054
:102050000E942908609101067091020680E090E0DC
:102060000E9429088E017E0184EBE81A8EEFF80A9F
:10207000F7018081918160910106709102069801BB
:102080002C1B3D0B2817390708F5F80181918F01AA
:10209000803C59F48BED90E00E9429086091010684
:1020A000709102068CED90E00EC08B3D59F48BEDE3
:1020B00090E00E94290860910106709102068DED62
:1020C00090E001C090E00E942908D2CF80EC90E01F
:1020D000DF91CF911F910F91FF90EF900C94290801
:1020E000282F809104068823A1F0203C01F58091DF
:1020F0002401811111C010920406409105065091EF
:10210000060665E174E080919D0590919E050C9412
:10211000AE09203C09F061C081E0809304068EEF97
:10212000809324011092060610920506089580916E
:102130000506909106068A3431E0930708F04DC0F9
:1021400030912401009731F43E3F21F42F70209309
:102150002401089531111FC02B3D21F481E08093AB
:102160000306089530910306332349F02C3D21F0F6
:102170002D3D19F42BED01C020EC10920306AC01AB
:102180004F5F5F4F5093060640930506FC01EB5EE0
:10219000FB4F20830895313071F430E0AAE0B0E0C5
:1021A0000E940E1C609320017093210180932201F4
:1021B000909323010895343081F43AE0239FC001C5
:1021C0001124AA2797FDA095BA2F80931C01909304
:1021D0001D01A0931E01B0931F0108952F923F92FD
:1021E0004F925F926F927F928F929F92AF92BF9227
:1021F000CF92DF92EF92FF920F931F93CF93DF93D3
:10220000CDB7DEB7C45AD1090FB6F894DEBF0FBE02
:10221000CDBFC856DF4F99838883C859D040C65672
:10222000DF4F79836883CA59D040C456DF4F598342
:102230004883CC59D0405901C257DF4F19821882C8
:10224000CE58D0409E012F5F3F4FC957DF4F398393
:102250002883C758D040AE014A575F4FC757DF4F5A
:1022600059834883C958D040C856DF4F0881198127
:10227000C859D0400F5F1F4FC856DF4FE881F98122
:10228000C859D0408491853291F1882309F448C718
:10229000C456DF4F68817981CC59D040C656DF4F94
:1022A000E881F981CA59D0400995C257DF4FE880CB
:1022B000F980CE58D040FFEFEF1AFF0AC557DF4F25
:1022C000B982A882CB58D040C856DF4F1983088303
:1022D000C859D040C257DF4FF982E882CE58D0406B
:1022E000C557DF4FA880B980CB58D040BDCFF8018B
:1022F0008491853259F5C856DF4F28813981C859F4
:10230000D0402E5F3F4FC856DF4F39832883C859CE
:10231000D040C456DF4F68817981CC59D040C65631
:10232000DF4FE881F981CA59D0400995C257DF4F84
:10233000E880F980CE58D040FFEFEF1AFF0AC5576A
:10234000DF4FB982A882CB58D040C4CFC256DF4FEE
:102350001882CE59D040C357DF4F1882CD58D04095
:10236000C057DF4F1882C059D040CF56DF4F188278
:10237000C159D040F8012491C80101962B3209F4CB
:1023800058C060F42032E9F0233209F05AC0F1E07D
:10239000C357DF4FF883CD58D04051C02D3251F094
:1023A000203309F04EC021E0C256DF4F2883CE59BA
:1023B000D04045C0F1E0C057DF4FF883C059D0404E
:1023C0003EC0232D2C7F322ECF56DF4F3881C1598E
:1023D000D040332ACE56DF4F4881C259D04040FB0F
:1023E00032F8C057DF4F5881C059D04050FB33F806
:1023F00020FA34F8CD56DF4FA881C359D040A0FB56
:1024000035F8C357DF4FB881CD58D040B0FB36F810
:10241000CC56DF4FE881C459D040E0FB37F8232D7C
:10242000237069F441E0CF56DF4F4883C159D04053
:1024300006C031E0CF56DF4F3883C159D0408C0100
:1024400099CFC357DF4F5881CD58D040C056DF4F8A
:102450005883C05AD040F80124912A3221F0612CCF
:10246000712C3AE025C095012E5F3F4FD5016D904C
:102470007C9077FE09C0719461947108B1E0C057F7
:10248000DF4FB883C059D0408C01590116C02A33A0
:10249000A0F40F5F1F4FFC018491A301349F300112
:1024A000359F700C112450E3651A7108680E711C79
:1024B000C801F8012491203350F7C057DF4FF8814D
:1024C000C059D040FF2329F0C256DF4F1882CE59A1
:1024D000D040F80184918E3249F5319684918A3248
:1024E00029F08F01412C512C3AE01AC0D5014D90B2
:1024F0005C900E5F1F4FF50132965F011AC02A33C0
:10250000C0F40F5F1F4FFC018491A201349F200192
:10251000359F500C112450E3451A5108480E511CA8
:10252000C801F8012491203350F703C044244A9491
:10253000542CF8012491C8010196283699F018F41A
:102540002C3439F017C02C3621F02A3799F4212C7D
:1025500002C0222423948C01CD56DF4F1882C35928
:10256000D0400EC08C01F1E0CD56DF4FF883C35947
:10257000D04005C0CD56DF4F1882C359D040212C22
:1025800098012F5F3F4FC856DF4F39832883C859C2
:10259000D040F801D490C956DF4FD882C759D040F7
:1025A000F5E6DF1609F402C2FD15ECF023E5D216BC
:1025B00009F453C02D1564F035E4D31609F4F6C1BF
:1025C00047E4D41609F4E1C1DD2009F46FC42AC040
:1025D00053E6D51671F15D150CF4C6C088E5D81622
:1025E00009F48DC01FC090E7D91609F471C09D157C
:1025F00064F0A7E6DA1609F4C8C1DA160CF4D1C102
:10260000B9E6DB1609F4B0C00DC0E5E7DE1609F443
:1026100076C0F8E7DF1609F46DC023E7D21202C0D6
:10262000F12C1DC0C557DF4FB982A882CB58D040CE
:1026300049C4A5014E5F5F4FC557DF4F598348839B
:10264000CB58D040D5018C918983F12C8E010E5F3F
:102650001F4FFE0131964F0143C4FF24F3949501AF
:102660002E5F3F4FC557DF4F39832883CB58D0406B
:10267000D5018D909C908114910421F4A9E28A2EB9
:10268000A1E09A2E57FE04C0F0E14F2EF7E25F2E34
:102690008401FF20C1F0F8018491882309F420C44B
:1026A000C80188199909841595050CF019C40F5FA4
:1026B0001F4FF1CFC80188199909841595050CF0B1
:1026C0000FC40F5F1F4FD8018C918111F3CF08C445
:1026D000F5013296C557DF4FF983E883CB58D040D8
:1026E000D5016D917C9180E090E0E8E4EE2EE1E090
:1026F000FE2E26C078E5E72E71E0F72E04C068E4D0
:10270000E62E61E0F62E222071F0F5013496C557D1
:10271000DF4FF983E883CB58D040D5016D917D918F
:102720008D919C910DC0C5010296F501608171816A
:10273000C557DF4F99838883CB58D04080E090E025
:1027400021E0CE56DF4F2883C259D04035E7D3125F
:1027500005C0CE56DF4F1882C259D040CF56DF4F4A
:102760001882C159D0403EC0222079F0A5014C5FAB
:102770005F4FC557DF4F59834883CB58D040D501B1
:102780006D917D918D919C910FC0F5013296C55749
:10279000DF4FF983E883CB58D040D5016D917C9110
:1027A000882777FD8095982F97FF13C09095809587
:1027B000709561957F4F8F4F9F4FCE56DF4F188298
:1027C000C259D040B2E0CF56DF4FB883C159D04094
:1027D00005C0CE56DF4F1882C259D04058E4E52ECE
:1027E00051E0F52EE1E0CC56DF4FE883C459D040EC
:1027F000611571058105910529F4CC56DF4F1882CA
:10280000C459D0404114510441F4CC56DF4FF881F3
:10281000C459D040FF2309F476C0CE56DF4F28813B
:10282000C259D0408E010A571F4F2130A9F02AE02B
:1028300030E040E050E00E94EC1BF701E60FF71F8C
:102840008081D8018E938D01B901CA01611571058E
:102850008105910561F715C0FB01EF70FF27EE0DB3
:10286000FF1D2081F80122938F0144E09695879502
:10287000779567954A95D1F76115710581059105A1
:1028800059F757FE43C0C256DF4FF881CE59D040AA
:10289000FF23E1F1232D2C7F322ECF56DF4F3881DD
:1028A000C159D040332ACE56DF4F4881C259D0405B
:1028B00040FB32F8C057DF4F5881C059D04050FB21
:1028C00033F820FA34F8CD56DF4F8881C359D04011
:1028D00080FB35F8C357DF4F9881CD58D04090FB2F
:1028E00036F8CC56DF4FA881C459D040A0FB37F84A
:1028F000232D237081E090E011F480E090E023012B
:10290000481A590A03C08E010A571F4FC757DF4F95
:1029100088819981C958D040801B910BF80120E330
:102920004F01841595051CF422930196F9CFC357E6
:10293000DF4FB881CD58D040BB23A1F0CC56DF4F3C
:10294000E881C459D040EE2369F08D2D8F7D883504
:1029500049F4F4013197D082F2E08F1A910880E3B4
:10296000D4018C93C957DF4FE881F981C758D04013
:102970008E169F0608F0AEC247EB52E064E475E0A5
:1029800081E395E00E948219A5C2DA94DA94C956CF
:10299000DF4FD882C759D04011E04114510469F08B
:1029A00006C0C956DF4F1882C759D04010E057FE05
:1029B00007C026E0422E512C03C044244394512CDE
:1029C00095012C5F3F4FC557DF4F39832883CB5884
:1029D000D040D501CD90DD90ED90FC9020E030E02E
:1029E000A901C701B6010E94221A87FF0AC0F7FA9F
:1029F000F094F7F8F094B2E0CF56DF4FB883C159A6
:102A0000D040C156DF4F1883CF59D04088248394DB
:102A1000912C8C0E9D1E860C971C20E030E040E827
:102A20005FE3C701B6010E94711B87FD32C0A12C74
:102A3000B12C27EB33E44AEB51E5C701B6010E9404
:102A4000711B87FD0EC029EF32E045E150E5C7015B
:102A5000B6010E94261A6B017C01EAE0AE0EB11CA1
:102A6000E8CF20E030E040E251E4C701B6010E9427
:102A7000711B87FD49C020E030E040E251E4C7010E
:102A8000B6010E94261A6B017C01FFEFAF1ABF0A44
:102A9000E8CF20E030E0A901C701B6010E94221A68
:102AA000A12CB12C882381F12FEF36EE4BED5EE2A5
:102AB000C701B6010E94221A181674F029EF32E0FD
:102AC00045E150E5C701B6010E94751B6B017C0111
:102AD0002AE0A21AB108E8CF20E030E040E85FE346
:102AE000C701B6010E94221A87FF0EC020E030E025
:102AF00040E251E4C701B6010E94751B6B017C01E5
:102B000031E0A31AB108E8CF112321F1A414B504D0
:102B100064F44CEFA4164FEFB4063CF04A185B087F
:102B2000C956DF4F1882C759D04051E0451A5108A5
:102B300081E0C357DF4F9881CD58D0409827C156C8
:102B4000DF4F9883CF59D040A1E0C357DF4FA88310
:102B5000CD58D040C956DF4FB881C759D040B111C8
:102B60004CC0B7FE3EC080E3E1E0F0E0EC0FFD1F9B
:102B7000E60DF71D80834114510461F4C357DF4F04
:102B8000E881CD58D040E11105C0F401319680E0D4
:102B900090E007C0F40132968EE2D40111968C9336
:102BA000C20195012F5F3F4F280F391F40E38F016E
:102BB0008217930729F0009719F041930197F7CFF7
:102BC000920120953095A216B3060CF4D6C02C01C4
:102BD000E1E0F0E0CB56DF4FF983E883C559D04000
:102BE0005CC0222733272A193B09CB56DF4F398394
:102BF0002883C559D040840150C08401CB56DF4F93
:102C000019821882C559D04048C0C701B6010E9438
:102C10008E1ACF55DF4F688379838A839B83C15A8D
:102C2000D040CF55DF4F48815981C15AD040BA01B9
:102C3000882777FD8095982F0E94C11A9B01AC01CF
:102C4000C701B6010E94BD1920E030E040E251E426
:102C50000E94751B6B017C0198012F5F3F4FCF5580
:102C6000DF4F8881C15AD040805DD8018C93CB560C
:102C7000DF4F88819981C559D0400196CB56DF4FEF
:102C8000E881F981C559D040EF2B91F0CB56DF4F49
:102C900099838883C559D0408901CB56DF4F28815D
:102CA0003981C559D040421653060CF0AECF14C03E
:102CB0004114510439F4C357DF4FF881CD58D04047
:102CC000FF2339F098012E5F3F4FEEE2D8011196B5
:102CD000EC9381E090E0DACF20E030E040EA50E48D
:102CE000C701B6010E94711B87FD47C0F80181E052
:102CF00090E030E322912E3251F0820F8A3321F09E
:102D0000808380E090E003C0308381E090E08E1605
:102D10009F0680F3892B89F1C956DF4F3881C75947
:102D2000D0403323B9F0F8018E169F0678F4DF0106
:102D30008E919D018E3239F4CF010297DC018C9186
:102D40008083F90101C080833197EECFBFEFAB1ACA
:102D5000BB0A0BC00F5F1F4FF8018E169F0628F4A9
:102D6000DF018E918083FD01F8CF81E3E1E0F0E0A7
:102D7000EC0FFD1FE60DF71D8083C156DF4FE88184
:102D8000CF59D040EE2349F0F8018291803311F4FD
:102D90008F01FACF8E3209F48F01C956DF4FF881C7
:102DA000C759D040FF23B9F1D801FC93C80102965E
:102DB000B7FE07C02DE211962C93B194A194B108EF
:102DC00004C02BE2D80111962C938C01065F1F4F93
:102DD00020E030E02F5F3F4FF8013196C5016AE0F7
:102DE00070E00E94D81B805DD8018C935B01611557
:102DF000710511F08F01EECF22303105DCF3E21BBB
:102E0000F30B199781918E932150310912161306F5
:102E1000CCF309501109C256DF4FB881CE59D040CA
:102E2000BB2309F45CC0E32DEC7F3E2ECF56DF4F71
:102E3000F881C159D0403F2ACE56DF4F2881C25970
:102E4000D04020FB32F8C057DF4F3881C059D04006
:102E500030FB33F820FA34F8CD56DF4F4881C359A0
:102E6000D04040FB35F8C056DF4F5881C05AD040A3
:102E700050FB36F8CC56DF4F8881C459D04080FBD8
:102E800037F8232D237081E090E011F480E090E08A
:102E90009301281B390BF40140E34F01C8018E1B3D
:102EA0009F0B82179307DCF44293F7CFC557DF4F90
:102EB000B982A882CB58D040C856DF4F1983088307
:102EC000C859D040F12C08E211E085E2882E81E05B
:102ED000982E06C0F12C8E010A571F4F01C0F12C0D
:102EE0000819190960167106DCF1932D9C7F392EA3
:102EF000CF56DF4FA881C159D0403A2ACE56DF4F76
:102F0000B881C259D040B0FB32F8C057DF4FE881DA
:102F1000C059D040E0FB33F820FA34F8CD56DF4FEB
:102F2000F881C359D040F0FB35F8C056DF4F2881F7
:102F3000C05AD04020FB36F8CC56DF4F3881C459F8
:102F4000D04030FB37F86301C01AD10A232D23701B
:102F500081E090E011F480E090E0C81AD90A02C044
:102F6000C12CD12CC057DF4F4881C059D0404111EE
:102F700022C031E0C31AD108D7FC1DC0C456DF4FB0
:102F800068817981CC59D04080E2C656DF4FE88114
:102F9000F981CA59D0400995C257DF4F288139813C
:102FA000CE58D0402F5F3F4FC257DF4F3983288321
:102FB000CE58D040DECF432D4C7F342ECF56DF4F3E
:102FC0005881C159D040352ACE56DF4F8881C25929
:102FD000D04080FB32F8C057DF4F9881C059D040B5
:102FE00090FB33F820FA34F8CD56DF4FA881C3594F
:102FF000D040A0FB35F8C056DF4FB881C05AD04052
:10300000B0FB36F8CC56DF4FE881C459D040E0FB26
:1030100037F8832D837001F1813011F48BE201C008
:103020008DE2C456DF4F68817981CC59D040C656B5
:10303000DF4FE881F981CA59D0400995C257DF4F67
:1030400028813981CE58D0402F5F3F4FC257DF4F84
:1030500039832883CE58D040F11009C0C257DF4FC2
:10306000A880B980CE58D040A818B90822C0C2574D
:10307000DF4FE880F980CE58D0405401AE18BF0829
:103080000150110917FD2DC0F501EE0DFF1D8491B2
:10309000C456DF4F68817981CC59D040C656DF4F86
:1030A000E881F981CA59D0400995FFEFEF1AFF0A6C
:1030B000E7CF7501E80CF91C0150110917FD11C08B
:1030C000C456DF4F68817981CC59D040D4018D91AD
:1030D0004D01C656DF4FE881F981CA59D0400995A4
:1030E000E8CFC057DF4FF881C059D040FF2309F423
:1030F000F1C821E0C21AD108D7FCECC8C456DF4F92
:1031000068817981CC59D04080E2C656DF4FE88192
:10311000F981CA59D0400995FFEFEF1AFF0AE9CFAC
:10312000C257DF4F88819981CE58D040CC55DF4FB0
:103130000FB6F894DEBF0FBECDBFDF91CF911F91C8
:103140000F91FF90EF90DF90CF90BF90AF909F9046
:103150008F907F906F905F904F903F902F90089549
:103160009091C00095FFFCCF8A3041F09091C00053
:1031700090649093C0008093C60008959091C00021
:1031800090649093C0009DE09093C6009091C00021
:1031900095FFFCCFEBCFCF939B01C091C100409135
:1031A000C10048604093C1004091C1004F794093F5
:1031B000C10040E050E060EB78E10E94EE108091A9
:1031C000C00086FFFCCFC093C100CF910895CF937C
:1031D000C091C1009091C10098609093C1009091FE
:1031E000C1009F799093C10060E070E00E94B01828
:1031F0008091C00086FFFCCFC093C100CF9108959D
:10320000CF93DF93CDB7DEB7FE01359681919191D3
:10321000BF010E94CB18DF91CF9108951F93CF93E8
:10322000DF931091C1002091C10028602093C1005C
:103230002091C1002F792093C100FC018491EF01FE
:103240002196882331F060E070E00E94B018FE0102
:10325000F5CF8091C00086FFFCCF1093C100DF91B5
:10326000CF911F910895AF92BF92CF92DF92EF92CC
:10327000FF920F931F93CF93DF936C0185E0E82EAD
:10328000F12C00E117E2C0E0D0E09AE0A92EB12CC9
:10329000C601B8010E94D81B6C016115710529F4A3
:1032A000209719F40130110529F480E3860F0E945C
:1032B000E7182196C801B5010E94D81B8B0181E057
:1032C000E81AF108E114F10419F7CE01DF91CF916A
:1032D0001F910F91FF90EF90DF90CF90BF90AF9034
:1032E0000895CF93DF93EB010E940E198AE30E94A9
:1032F000E718CE010E94331983E795E0DF91CF9163
:103300000C940E19CF93DF93EC01CB01BA010E940C
:10331000711986E795E00E940E19CE010E940E19E0
:103320008AE00E94E71881E090E0DF91CF91089554
:103330000F931F93CF93DF93182F092FEB01B90140
:10334000CA010E94711985E695E00E940E19CE010E
:103350000E940E190F931F938CE595E09F938F9316
:103360000E9400190F900F900F900F9081E090E055
:10337000DF91CF911F910F9108955058BB27AA2735
:103380000ED075C166D130F06BD120F031F49F3F83
:1033900011F41EF45BC10EF4E095E7FB51C1E92F77
:1033A00077D180F3BA17620773078407950718F07F
:1033B00071F49EF58FC10EF4E0950B2EBA2FA02D5F
:1033C0000B01B90190010C01CA01A0011124FF27D2
:1033D000591B99F0593F50F4503E68F11A16F040CD
:1033E000A22F232F342F4427585FF3CF46953795CC
:1033F0002795A795F0405395C9F77EF41F16BA0B91
:10340000620B730B840BBAF09150A1F0FF0FBB1F3E
:10341000661F771F881FC2F70EC0BA0F621F731F87
:10342000841F48F4879577956795B795F7959E3FE4
:1034300008F0B3CF9395880F08F09927EE0F979572
:1034400087950895D9D008F481E008950CD00FC174
:1034500007D140F0FED030F021F45F3F19F0F0C00A
:10346000511139C1F3C014D198F39923C9F35523ED
:10347000B1F3951B550BBB27AA2762177307840767
:1034800038F09F5F5F4F220F331F441FAA1FA9F31D
:1034900033D00E2E3AF0E0E830D091505040E6950F
:1034A000001CCAF729D0FE2F27D0660F771F881F70
:1034B000BB1F261737074807AB07B0E809F0BB0B5F
:1034C000802DBF01FF2793585F4F2AF09E3F510583
:1034D00068F0B6C000C15F3FECF3983EDCF3869520
:1034E00077956795B795F7959F5FC9F7880F911DF9
:1034F0009695879597F90895E1E0660F771F881FE5
:10350000BB1F621773078407BA0720F0621B730B97
:10351000840BBA0BEE1F88F7E095089504D06894E9
:10352000B111D9C00895BCD088F09F5790F0B92F41
:103530009927B751A0F0D1F0660F771F881F991F08
:103540001AF0BA95C9F712C0B13081F0C3D0B1E01A
:103550000895C0C0672F782F8827B85F39F0B93F2A
:10356000CCF3869577956795B395D9F73EF490950A
:103570008095709561957F4F8F4F9F4F0895E89488
:1035800009C097FB3EF490958095709561957F4FAB
:103590008F4F9F4F9923A9F0F92F96E9BB27939559
:1035A000F695879577956795B795F111F8CFFAF469
:1035B000BB0F11F460FF1BC06F5F7F4F8F4F9F4F9A
:1035C00016C0882311F096E911C0772321F09EE8F8
:1035D000872F762F05C0662371F096E8862F70E05E
:1035E00060E02AF09A95660F771F881FDAF7880F38
:1035F0009695879597F90895990F0008550FAA0B8E
:10360000E0E8FEEF16161706E807F907C0F01216F5
:103610001306E407F50798F0621B730B840B950BF8
:1036200039F40A2661F0232B242B252B21F408954D
:103630000A2609F4A140A6958FEF811D811D0895EA
:1036400097F99F6780E870E060E008959FEF80EC55
:10365000089500240A9416161706180609060895F8
:1036600000240A9412161306140605060895092E5E
:103670000394000C11F4882352F0BB0F40F4BF2BCD
:1036800011F460FF04C06F5F7F4F8F4F9F4F08950D
:1036900057FD9058440F551F59F05F3F71F0479503
:1036A000880F97FB991F61F09F3F79F087950895E8
:1036B000121613061406551FF2CF4695F1DF08C007
:1036C000161617061806991FF1CF86957105610524
:1036D00008940895E894BB2766277727CB0197F9CC
:1036E00008958ADF08F48FEF08950BD0C0CFB1DFC3
:1036F00028F0B6DF18F0952309F0A2CFA7CF112448
:10370000EACFC6DFA0F3959FD1F3950F50E0551F88
:10371000629FF001729FBB27F00DB11D639FAA2726
:10372000F00DB11DAA1F649F6627B00DA11D661F75
:10373000829F2227B00DA11D621F739FB00DA11D96
:10374000621F839FA00D611D221F749F3327A00D50
:10375000611D231F849F600D211D822F762F6A2FEC
:1037600011249F5750408AF0E1F088234AF0EE0F71
:10377000FF1FBB1F661F771F881F91505040A9F77E
:103780009E3F510570F05CCFA6CF5F3FECF3983EB3
:10379000DCF3869577956795B795F795E7959F5FE5
:1037A000C1F7FE2B880F911D9695879597F908957F
:1037B00097FB072E16F4009407D077FD09D00E94DE
:1037C000281C07FC05D03EF4909581959F4F0895E5
:1037D000709561957F4F0895A1E21A2EAA1BBB1B1D
:1037E000FD010DC0AA1FBB1FEE1FFF1FA217B307CD
:1037F000E407F50720F0A21BB30BE40BF50B661FE3
:10380000771F881F991F1A9469F7609570958095A6
:1038100090959B01AC01BD01CF010895A29FB0011D
:10382000B39FC001A39F700D811D1124911DB29FF4
:10383000700D811D1124911D08950E940E1CA59FDD
:10384000900DB49F900DA49F800D911D112408959B
:10385000AA1BBB1B51E107C0AA1FBB1FA617B707B6
:1038600010F0A61BB70B881F991F5A95A9F78095D2
:0C3870009095BC01CD010895F894FFCFA5
:10387C000000070620003C018801680120002000A0
:10388C0000300168016801000000000032000000F7
:10389C005E010000FE3F3F3F003C4E554C4C3E004D
:1038AC0018032F03370338033C033903E402EA02FD
:1038BC00F7020C03ED02390330313233343536372D
:1038CC00383941424344454630313233343536374A
:0838DC0038396162636465661E
:00000001FF
